:0200000460009A
:100000004643464200000156000000000103030081
:1000100000000000000000000000000000000000E0
:1000200000000000000000000000000000000000D0
:1000300000000000000000000000000000000000C0
:1000400000000000010408000000000000000000A3
:100050000000800000000000000000000000000020
:100060000000000000000000000000000000000090
:100070000000000000000000000000000000000080
:10008000EB04180A063204260000000000000000FD
:10009000050404240000000000000000000000002F
:1000A0000000000000000000000000000000000050
:1000B0000604000000000000000000000000000036
:1000C0000000000000000000000000000000000030
:1000D00020041808000000000000000000000000DC
:1000E0000000000000000000000000000000000010
:1000F0000000000000000000000000000000000000
:10010000D8041808000000000000000000000000F3
:100110000204180804200000000000000000000095
:1001200000000000000000000000000000000000CF
:10013000600400000000000000000000000000005B
:1001400000000000000000000000000000000000AF
:10015000000000000000000000000000000000009F
:10016000000000000000000000000000000000008F
:10017000000000000000000000000000000000007F
:10018000000000000000000000000000000000006F
:10019000000000000000000000000000000000005F
:1001A000000000000000000000000000000000004F
:1001B000000000000000000000000000000000003F
:1001C000000100000010000001000000000000001D
:1001D000000001000000000000000000000000001E
:1001E000000000000000000000000000000000000F
:1001F00000000000000000000000000000000000FF
:10020000FFFFFFFFFFFFFFFFFFFFFFFFFFFFFFFFFE
:10021000FFFFFFFFFFFFFFFFFFFFFFFFFFFFFFFFEE
:10100000D10020432914006000000000000000000F
:101010002010006000100060003801600000000037
:10102000000000600044010000000000FFFFFFFF1F
:10103000FFFFFFFFFFFFFFFFFFFFFFFFFFFFFFFFC0
:10104000FFFFFFFFFFFFFFFFFFFFFFFFFFFFFFFFB0
:10105000FFFFFFFFFFFFFFFFFFFFFFFFFFFFFFFFA0
:10106000FFFFFFFFFFFFFFFFFFFFFFFFFFFFFFFF90
:10140000884207D0904205D251F8043B40F8043B93
:101410008242F9D8704700BF884204D2002340F8C6
:10142000043B8142FBD87047664B4FF42A01664A61
:1014300066482DE9F0475A641864654A99639546F1
:10144000BFF34F8FBFF36F8F00F004F9614B08209B
:10145000614A6249C3F854016148FFF7D1FF614A0C
:1014600061496248FFF7CCFF61496248FFF7D4FF4A
:10147000614C62494FF470000023614A086044F8EF
:1014800023200133B02BFAD15E4B80215E4A03F852
:10149000011B9342FBD14F4D4FF080385B494FF019
:1014A000FF325B4B0026DFF8A4A1DFF8A4911C609B
:1014B000C5F80481C5F800A1C5F8F480C5F8F0901E
:1014C0000B68544F43F4E0230B60FB693D4923F064
:1014D0007F0343F04003FB617B6A23F07F0343F00B
:1014E00040037B628A66CA660A674A6700F0B8F8FA
:1014F000494A4A4B6320A2630321E363484A494BAC
:10150000106000F160401E6042F8041C00F6A170FB
:101510004549464AC3F8082D0B68454A43F0807395
:101520000B601368434943F00103136003680B60C9
:1015300000F0E6FAC5F804813F48C5F800A1C5F8F7
:10154000F480C5F8F09000F073FCF96E3B4A41F46A
:1015500040513B4BF9661660C2F80861C2F8186149
:10156000C2F82861C2F838619A6BD20708D442F6F3
:101570001562344959651A659A6B42F001029A6303
:101580002F4A314C936843F00113936000F0DAF86E
:1015900000F016FC00F048FC00F0E4FA00F05CF803
:1015A0002368132BFCD900F06BFB2368B3F5967FFF
:1015B000FBD300F053F800F04FFC00F051FC30BFBB
:1015C000FDE700BF00C00A40AFAAAAAA070020009A
:1015D0000000072000800D40E8F600004C1F00606E
:1015E00000000000C01E002038160160000000202E
:1015F00040E70020C01E0020001C002088ED00E015
:101600004198000000E400E0A0E400E024ED00E0E8
:1016100008ED00E000C00F40F5AB0000F9AB0000A2
:1016200014E000E018E000E0FCED00E00000202005
:10163000001000E074E600200046C323004008408C
:1016400000400D400000C05678E600201B10182016
:101650000C0D1113704700BF704700BF704700BFEB
:10166000F0B5244A0020244B4FF0100C234C1126D7
:10167000DFF8C8E0122720600125C2F800C0C3F8D7
:1016800000E01660DFF8B8E01D4EC3F800E01D4929
:1016900017601E6041F015011B4F1C4E17601E6045
:1016A0001B4F1C4E17601E601B4F11601B4E1C49C8
:1016B0001F6016601B4F19601B4E1C4917601E608F
:1016C0001B4F11601B4E1C491F601660196025607E
:1016D000BFF34F8FBFF36F8FC3F8B001BFF34F8FCE
:1016E000BFF36F8F52F8883C43F4403342F8883C94
:1016F000F0BD00BF9CED00E0A0ED00E094ED00E047
:101700000900100040E7002013002000210002071C
:1017100014000020250008130900001016002020E6
:1017200027000B131700004033001013180000604F
:101730002F000B07190000702F000B133F00001043
:1017400025000803F0B58D4B18228D4E01208D49E0
:1017500048F20C7E8C4D4FF0FF378C4C83B0C3F8B1
:101760005C12C3F860520025C3F86412C3F86842E3
:101770004FF40054C3F86C628549C3F87062C3F833
:101780007462C3F87862834EDA661A675A679A679A
:10179000DA67C3F88020C3F88420C3F8882040F2B9
:1017A0000562C1F82C03C1F83003C1F83403C1F855
:1017B0003803C1F83C03C1F850032946B3697648A1
:1017C0001840764B03437648B361D6F8843043F033
:1017D0000C03C6F8843002260368334303600368B1
:1017E00003EA0E0E6F4B4EEA0303DFF8F0E10360ED
:1017F0006D4B4760DEF808703B406C4F43F0005380
:101800008360C36823F07803C360036A1F40684B9A
:101810003B43664F0362036A1F40654B3B43654F82
:1018200043628762C762DEF8B830634F23F03F033C
:1018300043F00103C0F8B830DEF8BC30DFF884E1D3
:1018400023F03F0343F00103C0F8BC300561046698
:101850000767C0F8802044664767C0F884200468A2
:10186000564B24F00204564A0460C0F818E0C661E2
:1018700043F8041B9342FBD1494B1A68194642F0C6
:1018800001021A600B68464A13F00103FAD14D4E6B
:10189000022540F2F56440F2664040F299414A4F19
:1018A000966142F20146D56140F23545C2F80042E8
:1018B00042F20124C2F810020120C2F8201211469F
:1018C000C2F8307207F15A47C2F8346207F513774D
:1018D000C2F840523D4E3E4DC2F85072C2F85462BA
:1018E000C2F86052C2F86442C2F8A030C2F8A43014
:1018F000C2F8B0004B692A4ADD07FBD5012300245A
:101900004FF4803011465361C2F8A040C2F8A400E1
:10191000C2F8B0304B69224ADC07FBD50123002412
:101920004FF4003011465361C2F8A040C2F8A40041
:10193000C2F8B0304B691A4AD807FBD501230024FE
:10194000244811465361C2F8A040C2F8A400C2F86E
:10195000B0304B69124ADB07FBD5D2F8003145F6AF
:101960000D5121209BB250618B4239D01A4B00227D
:101970001A605A609A60DA6003B0F0BD00801F40C0
:10198000F9700100F9B00100F9100100F90001003F
:1019900000841F4000C00F40FFFCFF1F000300A099
:1019A00000402A401200FFFFFF37F70000FFF07CE5
:1019B00040000080FF000F836300020000422A40C5
:1019C00000432A40F05AF05A9F041830063201268C
:1019D0003806180A04000300E4E6002000802A40CC
:1019E00000244FF4802001231146C2F8A040C2F821
:1019F000A400C2F8B0304B693B4ADF07FBD5012396
:101A00004FF40004002011465361C2F8A040C2F810
:101A1000A400C2F8B0304B69334ADE07FBD501237E
:101A20004FF400044FF4803011465361C2F8A040D7
:101A3000C2F8A400C2F8B0304B692B4ADD07FBD5D1
:101A400001234FF400044FF4003011465361C2F8F3
:101A5000A040C2F8A400C2F8B0304B69224ADC07AB
:101A6000FBD501234FF40004204811465361C2F80E
:101A7000A040C2F8A400C2F8B0304B691A4AD80797
:101A8000FBD5D2F8003145F60D5121209BB25061B3
:101A90008B4210D0164B08224FF400041A701549DF
:101AA0000020154A01230090521A1448224400F0E5
:101AB000C7F903B0F0BD4FF400044FF480210123B7
:101AC0001046C2F8A040C2F8A410C2F8B030436972
:101AD0000549DB07FBD50120054B10224FF0807430
:101AE00048611A70DBE700BF00402A400400030091
:101AF00094E600200000007000000070E4E6002082
:101B0000F0B4174A40274FF480314FF480564FF419
:101B100000554FF4404443F24200136913F0020FA2
:101B200006D0946151619061136913F0020FF8D1EE
:101B300013F4005F01D15561EFE713F4805F01D129
:101B40005661EAE7002BE8DA13F4803F01D0916197
:101B5000E3E75B0601D45761DFE7F0BC704700BFE5
:101B600000800D40394A03203949F3EE095A1368C1
:101B70009FED386A23F00103DFED376AF0B413609C
:101B800000241061D1F8E030344FD8B2C3F30B21F8
:101B90001B0D334E07EE100A05EE101A07EE903AB1
:101BA000304BB8EEC55A304DB8EEC77A3060F8EE1B
:101BB000E77A29602D4937EE466A2D4E77EEC57AD1
:101BC0002C4877EE666A2C4D37EE657A26EE276A4A
:101BD000C7ED007A66EEA76A176867EE277A83ED8D
:101BE000007AC6EE075A86EE876AC7EE876A35EE38
:101BF000857AFCEEC77A36EE057A17EE903ABCEE9F
:101C0000C77A47EA035376EE857A136017EE103AE7
:101C1000D2F81071FCEEE77A01EA0341394317EE7E
:101C2000903AC2F81011C3F30B03D2F810110B4312
:101C3000C2F81031136843F0020313603470C0F827
:101C400040510E4B0122F0BC1A60704780810D405C
:101C500000441F400000AA420000B4426CE600208D
:101C600064E6002068E6002060E600200000FF0F28
:101C700040E400E0001C0020059A000008E100E0BC
:101C8000304B40F6617270B5C3F8202140F2044534
:101C900000F0DAF82C492D48D1F880202C4C42F085
:101CA00003022C4BC1F88020C0F860512268134019
:101CB0001BB9D0F8A8319A071AD0244B4FF0004135
:101CC000234A51631A46D3F8401141F00201C3F888
:101CD0004011D2F840319B07FBD44FF400301E492D
:101CE0001B4B4FF00042086019209A6300F0B0F8D7
:101CF0001A4D0022164B4FF08041144C0A2699636E
:101D000028461A601146C4F8A8614FF4207200F00A
:101D100093F84FF4810640F243114FF48000104BCA
:101D2000104A2E602864C4F85851C4F84811C3F80A
:101D300004220D4A4FF4003101231160C4F84031F0
:101D400070BD00BF00800D4000C00F4000002E405D
:101D500000900D40001C1E008CE200E000000020FE
:101D6000001C0020D19B00000CE100E008B50E4BE8
:101D70001B6E9B0700D4FBBE72B60C4B00200C4AB6
:101D8000C3F8400103F160430A49A3F55F231164DE
:101D90009D46BFF34F8F084A03F5E0430749126899
:101DA000184619609368984700441F4000002E4071
:101DB00000C00A40030020001C002000000012EBBD
:101DC000114B1249D86E0A4640F4403030B4D86600
:101DD00040F23765D86EA02440F44070D8664D6458
:101DE0008C64936C1B06FCD4094B40F23760A02135
:101DF0001A4658649964936C13F08003FBD1054A2A
:101E0000137030BC704700BF00C00F4000400C4052
:101E100000800C4093E60020F8B500BFF8BC08BC79
:101E20009E467047000000005FF800F031B20000ED
:101E30005FF800F01D9300005FF800F0EDC00000B7
:101E40005FF800F039B500005FF800F071A3000002
:101E50005FF800F0E19500005FF800F009B90000BC
:101E60005FF800F0B1B0000045000000C11A0000AA
:041E7000E524000065
:101E74001603550053004200200053006500720011
:101E8400690061006C0000001803540065006500DF
:101E94006E00730079006400750069006E006F00C5
:101EA4000403090409024B00020100C032080B00BC
:101EB40002020201000904000001020201000524DB
:101EC4000010010524010101042402060524060072
:101ED400010705820310001009040100020A000032
:101EE40000070503024000000705840240000000CB
:101EF40009024B00020100C032080B000202020179
:101F0400000904000001020201000524001001057B
:101F140024010101042402060524060001070582A8
:101F24000310000509040100020A0000000705036C
:101F34000200020007058402000200000A060002F3
:081F4400EF0201400100010061
:101F4C000000000000000000000000000000000085
:101F5C000000000000000000000000000000000075
:101F6C0010B5054C237833B9044B13B10448AFF3C7
:101F7C0000800123237010BD4820002000000000C9
:101F8C00E4F60000084B10B51BB108490848AFF344
:101F9C0000800848036803B910BD074B002BFBD029
:101FAC00BDE81040184700BF000000004C20002086
:101FBC00E4F60000C01E0020000000000020704766
:101FCC00704700BF704700BF036D0BB10120704715
:101FDC00406D003018BF0120704700BF10B504469B
:101FEC00806D18B10BF060FC0023A365236D2BB141
:101FFC0004F11800BDE8104006F062BD636D002BC3
:10200C00F6D110BDF0B5002395B04FF47A74234F80
:10201C001A460546183104A88DF804308DF80C309A
:10202C00129313930294009706F09EFD129B53B3E8
:10203C005C2000260AF0E4FF9DF804300446184AA0
:10204C0004A918302373029B22602361154A9DF862
:10205C000C30A2602375666006F0F0FC63684FF4E8
:10206C007A71114A0133A760A6652E712E732C610B
:10207C006360A9602A600D4B04A8009306F020FD54
:10208C00284615B0F0BD139B002BD1D1064A2B71FD
:10209C00AC602B732B612A60EDE700BFE0060020DB
:1020AC000407002060070020B4060020F80500207B
:1020BC00036D13B1184604F005BE406D08B102F073
:1020CC0073BB4FF0FF307047836C00B583B063B1C6
:1020DC00184601220DF1070104F026FD01280CD150
:1020EC009DF8070003B05DF804FBC06C28B1012219
:1020FC000DF1070102F07EFAF0E74FF0FF30F1E747
:10210C00036DF0B50C4683B02BB318460DF10602E7
:10211C0001A904F03FFBD8B1BDF80430BDF806208E
:10212C0003B9AAB102F01F06C3F343155912C2F347
:10213C00451703F01F037600013D01F5EA61D21249
:10214C0026706571A17123716770A27003B0F0BD28
:10215C00002003B0F0BD406D0028F9D00DF106024F
:10216C0001A902F0C7F9D6E7036D9BB11A7812F0FA
:10217C00700F00D1704710B504460021184604F0CA
:10218C00F7FE606D28B100220023BDE8104002F07C
:10219C0021BB10BD406D0028ECD090F8313013F00D
:1021AC00500FE7D00022002302F014BB38B5846D29
:1021BC000CB1204638BD05464FF480700BF06CFB1B
:1021CC000146A86580B1286D0C7028B14FF480725F
:1021DC0006F082F9AC6DECE7686D40B14FF480729B
:1021EC0003F0FAFEAC6DE4E7024CAC65E1E70C469B
:1021FC00DFE700BF92E600208A79A2F150031B06AC
:10220C0021D402F26C72F0B54B7985B0046D0133B8
:10221C000D798E784F78DBB209784CB1039120465A
:10222C00029704210196009504F0C2FF05B0F0BDA1
:10223C00406D0028FAD0039104218DE8E00003F0F2
:10224C00BBF805B0F0BD0020704700BFD0B5046DE1
:10225C008CB1012B08BF002A01D30020D0BD114640
:10226C00204604F085FE0028F7D0204605F00CF837
:10227C000028F2D0D0BD446D002CEED0204602F0E8
:10228C00A9FA0028E9D02046BDE8D04003F062B995
:10229C00036DF0B50C4683B02BB318460DF1060256
:1022AC0001A904F087FAD8B1BDF80430BDF80620B6
:1022BC0003B9AAB102F01F06C3F343155912C2F3B6
:1022CC00451703F01F037600013D01F5EA61D212B8
:1022DC0026706571A17123716770A27003B0F0BD97
:1022EC00002003B0F0BD406D0028F9D00DF10602BE
:1022FC0001A902F011F9D6E7036D13B1D8690021D9
:10230C007047436D13B118695969704718461946DF
:10231C00704700BF036D13B1586900217047436DBE
:10232C0013B193E80300704718461946704700BF75
:10233C00036D13B1184604F0F7BB406D08B102F001
:10234C0059B94FF0FF307047836C13B1184604F045
:10235C00B9BCC06C08B102F027BA4FF0FF3070471F
:10236C00036D33B11B7813F0700F14BF01200020E4
:10237C007047406D30B190F8313013F0500F14BFEE
:10238C0001200020704700BF8A79A2F150031B0680
:10239C0021D402F26C72F0B54B7985B0046D013327
:1023AC000D798E784F78DBB209784CB103912046C9
:1023BC00029702210196009504F0FAFE05B0F0BDDB
:1023CC00406D0028FAD0039102218DE8E00002F064
:1023DC00F3FF05B0F0BD0020704700BF036963B187
:1023EC001A68074992698A4208D1186D08B104F03D
:1023FC00D9BE586D08B102F06BBE70471846104735
:10240C00C5040000036D13B1184604F0CBBE406D3B
:10241C0008B102F05DBE7047836C13B1184604F02E
:10242C00C1BEC06C08B102F053BE704703698BB1DA
:10243C000E4810B41C68E468844211D1186D18B1B0
:10244C005DF8044B04F05CBF586D28B15DF8044B8B
:10245C0003F0F2B80020704700205DF8044B704781
:10246C00184623465DF8044B184700BFB50500001D
:10247C00036973B11A68084952698A4207D1186D09
:10248C0008B104F01FBC586D18B102F08DB9184694
:10249C0010474FF0FF30704771010000036923B300
:1024AC001968134A10B58C6882B0944214D1186D17
:1024BC0048B101220DF1070104F036FB90B19DF8F3
:1024CC00070002B010BD586D0028F8D001220DF1A4
:1024DC00070102F08FF8F1E7184601220DF1070110
:1024EC00A047EBE74FF0FF30EBE74FF0FF307047C2
:1024FC00F1030000036D13B1184604F001BF406DE9
:10250C0008B103F099B87047836C13B1184604F006
:10251C00F7BEC06C08B103F08FB8704700B5836C80
:10252C0083B08DF8071043B1184601220DF1070155
:10253C0004F0E6FE03B05DF804FBC06C0028F9D093
:10254C0001220DF1070103F077F803B05DF804FBED
:10255C0010B5036982B08DF80710BBB11968104A29
:10256C00CC68944215D1186D30B101220DF10701E0
:10257C0004F0C6FE02B010BD586D0028FAD001223E
:10258C000DF1070103F058F802B010BD184602B067
:10259C0010BD01220DF107011846A04702B010BD75
:1025AC00B5050000826C62B1137803F0080303F0E8
:1025BC00FF000BB3D3695069181A48BF6FF0004085
:1025CC007047C16CC9B191F8313003F0080303F0C6
:1025DC00FF008BB1D1E90423D1E9000130B4101A0A
:1025EC004FF000056FF0004463EB01018D4208BF12
:1025FC00844200D2204630BC70470846704700BF6A
:10260C00026D62B1137803F0080303F0FF000BB303
:10261C00D3695069181A48BF6FF000407047416D7C
:10262C00C9B191F8313003F0080303F0FF008BB10E
:10263C00D1E90423D1E9000130B4101A4FF00005A0
:10264C006FF0004463EB01018D4208BF844200D25D
:10265C00204630BC70470846704700BF0069002810
:10266C002FD00368184A1B6993420ED1026D6AB1D0
:10267C00137803F0080303F0FF0013B3D369506918
:10268C00181A48BF6FF0004070471847416DC9B128
:10269C0091F8313003F0080303F0FF008BB1D1E95E
:1026AC000423D1E9000130B4101A4FF000056FF08B
:1026BC00004463EB01018D4208BF844200D22046E6
:1026CC0030BC704708467047C1060000D0B4039C6C
:1026DC0016461F4634B1012C1ED0022C0DD0002002
:1026EC00D0BC7047046DDCB1012B08BF002AF6D2B8
:1026FC0020461146D0BC04F03BBC036DB3B1DA6983
:10270C00B61847F10007012F08BF002EE7D231465B
:10271C001846D0BC04F02CBC036D93B15A69EFE79A
:10272C00406D0028DBD0D0BC02F054B8436D002BB8
:10273C00D5D01846D3E9042392197B41D0BC02F0C2
:10274C0049B8436D002BCAD01846D3E9002392191F
:10275C007B41E8E738B504460C4B806D236018B11B
:10276C000BF0A2F80023A365236D04F118054BB1FF
:10277C00284606F0A5F9064B2846A36006F0A0F9FA
:10278C00204638BD636D002BF2D1F4E7040700201E
:10279C00F805002038B504460E4B806D236018B147
:1027AC000BF082F80023A365236D04F118056BB1BF
:1027BC00284606F085F9084B2846A36006F080F9F8
:1027CC0020465C210AF01EFC204638BD636D002BB0
:1027DC00EED1F0E704070020F805002070B5254B7A
:1027EC000546046903601CB16668013E66600EB163
:1027FC00284670BD2368204ADB6A93422CD1A06D19
:10280C0010B10BF051F8A665236D5BB304F1180001
:10281C0006F056F92C69002CEAD02368174A5B683D
:10282C0093421CD1164BA06D236018B10BF03CF8F1
:10283C000023A365236D04F11806BBB1304606F0E6
:10284C003FF9104B3046A36006F03AF920465C2164
:10285C000AF0D8FB284670BD20469847DAE7204698
:10286C009847C5E7636D002BD0D1D3E7636D002B80
:10287C00E4D1E6E7B40600209D00000055080000F6
:10288C0004070020F805002070B5294B04460569A3
:10289C0003601DB16E68013E6E602EB1204614219E
:1028AC000AF0B0FB204670BD2B68224ADB6A9342CB
:1028BC0030D1A86D10B10AF0F7FFAE652B6D7BB36C
:1028CC0005F1180006F0FCF82569002DE6D02B6800
:1028DC00194A5B68934220D1184BA86D2B6018B134
:1028EC000AF0E2FF0023AB652B6D05F11806DBB196
:1028FC00304606F0E5F8124B3046AB6006F0E0F8D7
:10290C0028465C210AF07EFB204614210AF07AFB53
:10291C00204670BD28469847D6E728469847BDE71D
:10292C006B6D002BCCD1CFE76B6D002BE0D1E2E7C8
:10293C00B40600209D00000055080000040700208C
:10294C00F8050020704700BF044608B50BF078FE70
:10295C002146024603480AF063FB02480AF038F9A4
:10296C00FEE700BFFC1300202DE9F04F9DB082461E
:10297C000C461D46019200230246C14908A806F0E8
:10298C0099F91A9B002B00F0B8815C2000260AF004
:10299C0037FB9DF824308146BA4A0CA9183089F8C7
:1029AC000C300A9BC9F80020C9F81030B64A9DF8C3
:1029BC002C30C9F80820C9F8046089F8143006F0E6
:1029CC003DF8D9F80430B14A0CA80133B04FC9F81E
:1029DC005860C9F80820C9F80430089706F070F858
:1029EC00AC4ED9F8043032690133C9F80430002AEE
:1029FC0000F080815368013B5360002B00F0938002
:102A0C00C6F81090B9F1000F00F0D780D9F8043057
:102A1C00013BC9F80430002B00F0EB803369DFF880
:102A2C007492002B00F0C9801A689B49126B8A4281
:102A3C0040F075811A6D002A00F01D819749002B1A
:102A4C006ED0D3F800E0DEF810208A4240F06F819F
:102A5C001A6D002A00F033811178090760D5D1690D
:102A6C005069081A00F12681002859D0019B002BCF
:102A7C0032DD4FF0000A002D29DD0FFA8AFB04230A
:102A8C004FF0000803EBCB19A14482480AF032F94D
:102A9C00BBF1000FC0F26D81B4F90010594540F341
:102AAC006881BBF11F0F00F36481B4F902000FFAC7
:102ABC0088F1884240F3DC801FFA88F11F2900F26C
:102ACC00D78008F10108A9EC010A4545DDD10AF1CE
:102ADC00010A019B5345CEDC33690BB3D3F800E0FC
:102AEC00DEF82C20DFF8B881424540F08281986DE9
:102AFC0028B101930AF0D8FE0022019B9A651A6D49
:102B0C00002A00F0798103F1180005F0D9FF34692F
:102B1C006568013D6560002D00F034810023336150
:102B2C001DB0BDE8F08F11685D48C96A02938142FF
:102B3C0040F00081906D28B103920AF0B5FE039A23
:102B4C00029B9365136D002B00F0068102F11800B7
:102B5C0005F0B6FFD6F810B0BBF1000F3FF450AF44
:102B6C00DBF800304F4A5B68934240F0E980454BFC
:102B7C00DBF85800CBF8003020B10AF095FE0023AA
:102B8C00CBF85830DBF85030002B00F0EA800BF11A
:102B9C0018031846029305F093FF029B1846CBF8D6
:102BAC00087005F08DFF58465C210AF02BFAC6F828
:102BBC001090B9F1000F7FF429AF3B4908A80AF037
:102BCC00A9F9514604A80AF0A5F904A908A80AF025
:102BDC00EDF90146354809F0D5FF344809F0F8FF06
:102BEC0004A80AF057F908A80AF054F91DB0BDE87A
:102BFC00F08FD9F800202A49D26A02938A4240F019
:102C0C009C80D9F8580020B10AF04EFE029BC9F8FE
:102C1C005830D9F85030002B00F0958009F118008D
:102C2C0005F04EFFD9F800301E4A5B68934240F025
:102C3C009080144BD9F85800C9F8003020B10AF034
:102C4C0033FE0023C9F85830D9F8503009F1180B6D
:102C5C00002B00F09180584605F032FFC9F808703F
:102C6C00584605F02DFF48465C210AF0CBF9D5E615
:102C7C000F48FFF769FE5A6D002A7FF4DFAE9CE720
:102C8C0088A000200407002060070020E006002038
:102C9C00F8050020A419002089000000C1060000DE
:102CAC009D00000055080000240D0020FC1300209E
:102CBC00F00C0020019A002A3FF7DBAE10E75B6DA9
:102CCC00002B3FF42DAF93F8312012077FF528AF7E
:102CDC006FF00042D3E904ABD3E900010023BAEB57
:102CEC0000006BEB01018B4208BF8242BFF4BCAE0B
:102CFC001046B9E6C6F810908AE6DDF86C90B9F18A
:102D0C00000F7FF442AE434F0CA8434E089705F0DA
:102D1C00D7FE3269002A7FF46DAE32614DE718465A
:102D2C00904700283FF449AFD9F8103086E6184692
:102D3C00904799E6104688470CE74846904771E75C
:102D4C00584698475CE6D9F85430002B7FF466AFB0
:102D5C0068E74846984761E6536D002B7FF4F6AE62
:102D6C00F8E6DBF85430002B7FF411AF0BF11803AD
:102D7C0014E72A48FFF7E8FDD9F85430002B7FF40C
:102D8C006AAF6BE72368DB6A43452FD1A06D10B1A6
:102D9C000AF08AFDA565236D002B36D004F11800CE
:102DAC0005F08EFE3469002C3FF4B8AE23681C4A43
:102DBC005B68934217D11B4BA06D236018B10AF0CE
:102DCC0073FD0023A365236D04F11805CBB12846D0
:102DDC0005F076FEA760284605F072FE20465C21C1
:102DEC000AF010F99AE62046984797E6204698474D
:102DFC00D8E7184690478AE65A6D002A7FF483AECE
:102E0C0085E6636D002BE2D1E4E7636D002BC5D141
:102E1C00C8E700BFF8050020A4190020C00C002052
:102E2C005508000004070020F8B5B0F90060002E2A
:102E3C001CDDB0F90270031D10EE104A00207D1E3F
:102E4C00ADB2AD000435002F11DD1F2817D8E918DD
:102E5C0003F1800201E0934214D043F8044B8B42FF
:102E6C00F9D10130134602B2B242ECDBF8BD03F1EA
:102E7C0080020130134602B2B242E4DBF6E70348AB
:102E8C00FFF762FD0248FFF75FFD00BFC00C00209A
:102E9C00440D00202DE9F04FB1F90090ADF5815DA6
:102EAC00B1F902800D1D83B0A0F80090A0F802804B
:102EBC008346B1F900A0B1F9022041F228019C4BE4
:102ECC00BAF1000F6944ADF8262021F803A013DDF8
:102EDC000AAB002401E0BDF926200134294618462E
:102EEC00920008F021F9BDF924A024B203468035E4
:102EFC00A24503F18003EEDCB9F1000F34DD0025AF
:102F0C004FF07E575E4600242A46B8F1000F26DDAE
:102F1C00002130460B4611E01F2A00F3F480914546
:102F2C0040F3F1801F2B00F3F180984540F3EE80C5
:102F3C000131446004300BB2984510DD9342EBD163
:102F4C00914540F3E0801F2A00F3DD80904540F36B
:102F5C00DD800131476004300BB29845EEDC013561
:102F6C0080362AB29145D0DC00230AF1FF32BDF93C
:102F7C0026C0DFED744ADFED715A9FED715A05934F
:102F8C0006920093CDF804B0009B069A934280F20F
:102F9C00DB80009A571C1346BFB23DB255450795CE
:102FAC0080F2AB80BDF914605645B4BF00230123F9
:102FBC0053EAD67340F0A7801F2E00F3A480664519
:102FCC0080F2A48002EB421309AA02EB8303D3ED37
:102FDC00017AB0EEE77AB4EEE47AF1EE10FA00F191
:102FEC009880009A09A904934FEAC21B059A02F132
:102FFC00020E0BF108020BF104038B448A181FFA22
:10300C008EFE0292019AD318039355457BDA1F2F3B
:10301C0094BF00230123002B75D1009A09A9BCF1A0
:10302C00000F02EB451201EB820292ED017A87EE62
:10303C00276A5EDD564566DA0422019CDBED017AD7
:10304C0002EBC512039866EE277A11442244029CC7
:10305C000BE01F2B01F1040102F1040256DC002BE2
:10306C0054DBF4EC017A66EE277A91ED007AB145E7
:10307C0077EE677AC1ED007A45DD984546DDB0EC18
:10308C00017AA94526EE077A3DDDD2ED006A9C4512
:10309C0036EEC77A82ED007A38D0F0EEE77AF4EEAD
:1030AC00E57AF1EE10FA01D581ED005AB0EEC77A4F
:1030BC00B4EEE57AF1EE10FA01D582ED005A013347
:1030CC001BB29C45C5D10FFA8EF3534515DA049B00
:1030DC0001370EF1010ED3ED017ABFB21FFA8EFE4D
:1030EC00B0EEE77AB4EEE47AF1EE10FA11D43DB218
:1030FC008BE70FFA8EF39A45E9DC059B01330593B8
:10310C00079B009340E70B48FFF71EFC0A48FFF7AC
:10311C001BFCDDF804B04FF6FF73ABF80030ABF8D6
:10312C00023058460DF5815D03B0BDE8F08F00BF4D
:10313C00FCEFFFFFC00C0020440D0020ACC527376E
:10314C000000000095BFD633BAF1010FDDF804B0D2
:10315C001FDDAAF102052AAC01200026ADB2023512
:10316C0003B25345CFDA1F2BD4BF00230123002B0E
:10317C00C9D1224619B28C45C8DD99B21F29C5D8D0
:10318C00013342F8046B8342F4D101308034854220
:10319C00E6D1BDF818301FB2002FBE4640F3888030
:1031AC005FED185A1FED1B6A1FED1B5A013B1F2FB9
:1031BC0001931EB2A7DC5745A5DA7D0109AAEB19CC
:1031CC0002EB830300936745A0DA009B93ED017A31
:1031DC00F0EEC77AF4EEE57AF1EE10FA9BD41F2EDE
:1031EC0091DCB2458FDD740109AAE31902EB83036C
:1031FC00D3ED017AC7EE876AE7EE667AB0EEE77A2E
:10320C00C3ED017AB4EEC67AF1EE10FA48BF83ED45
:10321C00015AB9457FF777AFF0457FF777AFBEF12D
:10322C001F0F3FF773AF05EB0E03B14570460BEB69
:10323C008303D3ED017A66EEA77A7FF764AF04EBD4
:10324C000E02F1EE666A73460BEB820292ED017A86
:10325C0077EE677AC2ED017A11E098457FF756AFA9
:10326C00E218E91818460BEB82020BEB8101D2ED48
:10327C00017A91ED017AE6EE877AC2ED017AF0EEF1
:10328C00E77AF4EEC67AF1EE10FA04D522180BEBBD
:10329C00820282ED015A013B1BB25A1CDDD1013E68
:1032AC0036B2711C8FD1BDF804302BB11FB27DE743
:1032BC00BAF1000F7FF735AFBCF1000F7FF726AFE7
:1032CC00DDED0A7A1FED617AF0EEE76AF4EEC76A7B
:1032DC00F1EE10FA3FF51FAF4FF07E5509A80BF138
:1032EC0004040022914545607FF70DAFB8F1000F43
:1032FC007FF70CAF2146002305E098457FF706AF1A
:10330C001F2B3FF703AF91ED006A0133C6EE276A1E
:10331C001BB25345E1EC016AEFDB013212B25245AC
:10332C00BFF6FFAE002AFFF6EEAE94453FF4EEAECC
:10333C00D0ED227A80348430F0EEE76AF4EEC76A7E
:10334C00F1EE10FACED5E6E62DE9F04FBA4DADF51B
:10335C00E04D40F2EE28B94C95B02E68B84FDFF82E
:10336C004C9304E0B3F5FA6F15D809F061FE09F03F
:10337C005FFE237843B13B78DA0705D52B68D9F883
:10338C0000209B1A0E2B06D82B6822789B1B002A38
:10339C00E8D14345E9D909F04BFE2378002BFAD04C
:1033AC003B78DB07F7D52B68D9F800209B1A0E2B3E
:1033BC00F1D901210D2008F08BF91821A14809F051
:1033CC00D1FAFE21A04800F0ABFF002800F02781C5
:1033DC0006219E4809F0C6FA9D4809F0F9FB202306
:1033EC009C4941F238051A469B48FFF7BDFA9B4CA5
:1033FC0020239B4821469B4E1A466D44FFF7B4FA96
:10340C000323202298499948FFF7AEFA0123202282
:10341C0097499848FFF7A8FA0DA88E49FFF73AFD8F
:10342C0047F25001B4F9003047F250006944BDF93D
:10343C003690B4F90220684431F906B04B458E49F8
:10344C006A8020F801B000F08C804FF0FF32934678
:10345C008A4BA3F800B05A8042F23C077D49884C55
:10346C006F443846FFF716FD47F250036B441D5F5F
:10347C00B7F90240002D40F39782601E0DF54153C1
:10348C000437002680B203F1040E0130002C16DD47
:10349C0033B29D4240F3B5811F2B00F3B2817146CC
:1034AC003A46012303E00133212B00F0B580F2EC06
:1034BC00017A8342F1EE677AE1EC017AF3D10136BD
:1034CC0080370EF1800E33B29D42DFDC664B44F246
:1034DC00440647F250006B49B3F902206E44B3F92D
:1034EC00003068447280A342455200F00C814FF0CA
:1034FC00FF331D46644A1580538045F248045549F4
:10350C00624D6C442046FFF7C5FC47F25002584B05
:10351C0046F24C016A44B4F9028047F25004694403
:10352C0032F905A0B3F902206C44B3F900305848C5
:10353C0043454A8024F800A000F066814FF0FF322A
:10354C009246544BA3F800A05A800021524809F02F
:10355C0009FA3F4809F03CFB0DF5E04D15B0BDE80C
:10356C00F08FBBF1000F7FF773AF2B1D09F1FF3A02
:10357C00CDF80CB00DF13C0802931FFA8AFA002327
:10358C009FED466A4FEACA1A9B46002A40F3948084
:10359C000FFA8BF71F2F00F33481039BBB42CCBF78
:1035AC0000270127002F40F02C813D4E4FF0010EDB
:1035BC00DDF808C0B9F1000FACEC016A78DD3BB264
:1035CC0018ED017A9A4227DD56ED207A0AEB0600B7
:1035DC0006F58054334667EE277A4146DFED2F6AB5
:1035EC0008E08033A34217D0B1EC017A53ED207A76
:1035FC0067EE277A834276EEA76AF2D10FFA8EF342
:10360C004CED016A9A4257DD01370EF1010E04367A
:10361C00202F1FFA8EFECDD12248FFF795F90821F5
:10362C00214809F09FF90A4809F0D2FA0DF5E04D4E
:10363C0015B0BDE8F08F00BF78E600209CE60020B6
:10364C009BE60020B40D002084A00020800D0020FB
:10365C00FC13002064200020880D0020683000201E
:10366C00900D0020E48FFFFF70500020980D00207B
:10367C0074600020A00D0020E89FFFFF6C4000202C
:10368C00ECAFFFFFF4CFFFFF7C800020F8DFFFFFE3
:10369C00FCEFFFFF80900020740E00200000000063
:1036AC00EC300020440D0020740D0020FCE60020BE
:1036BC000FFA8EF39342A7DB029B0BF1010B0399DC
:1036CC0008F18008803302930FFA8BF399423FF78D
:1036DC005CAFBE4E043500243180331D72803746FA
:1036EC0001E0B7F90220013492002946184607F090
:1036FC001BFDB6F9002024B203468035A24203F12B
:10370C008003EEDCA8E60DF5415306F1040B4FF0F7
:10371C00000A9FEDAF6A03F108099046B8F1000F5B
:10372C0049DD0FFA8AF7BD426BDD1F2FD4BF00278E
:10373C000127002F65D1DC46002CA64A4FF0010E64
:10374C00ACEC016A33DD3BB219ED017A98457FF799
:10375C0063AF52ED207A11464846DFED9D6A67EE65
:10376C00277A00230AE01F2B01F180013FF754AFA9
:10377C00B0EC017A51ED207A67EE277A013376EEC0
:10378C00A76A1BB29C42EED10FFA8EF34CED016A84
:10379C00434510DA01370EF1010E0432202F1FFAC7
:1037AC008EFE3FF439AF002CACEC016ACBDC0FFA87
:1037BC008EF39845EEDC0AF1010A0BF1800B09F14E
:1037CC0080090FFA8AF39D42A8DC834F42460436E7
:1037DC0000243D803B1DA7F802803D4601E0B5F971
:1037EC000220013492003146184607F09DFCB7F9CF
:1037FC00002024B203468036A24203F18003EEDCA3
:10380C007BE67648FFF7A0F8BAF1000F7FF799AE88
:10381C0008F1FF3945F2500C46F250034FF0000B03
:10382C001FFA89F9EC446B449FED696A4FEAC91998
:10383C000293002A42DD0FFA8BF61F2EE1DCB24513
:10384C00CCBF00260126002EDBD1654D0127DDF80B
:10385C0008E0B8F1000FAEEC016A2CDD33B21CEDC0
:10386C00017A9A427FF7D8AE55ED207A05EB090024
:10387C0005F580542B4667EE277A6146DFED546AD6
:10388C0009E08033A3423FF4C7AEB1EC017A53EDAB
:10389C00207A67EE277A834276EEA76AF1D13BB2A3
:1038AC004EED016A9A4209DD013601370435202EAE
:1038BC00BFB2CED1B0E63BB29A42F5DC029B0BF123
:1038CC00010B0CF1800C803302930FFA8BF39A45A9
:1038DC00AFDC444E46F2500500246D44A6F800A01F
:1038EC00331D7280374601E0B7F902200134920093
:1038FC002946184607F018FCB6F9002024B20346F6
:10390C008035A24203F18003EEDC002A7FF71DAE66
:10391C000027DFF8D0800221334809F023F8B6F9EC
:10392C000230002B32DD002FFFF66BAFB8F9003000
:10393C00BB427FF766AF1F2FD4BF00240124002C9D
:10394C007FF45FAF08EBC715043507E0B8F900301A
:10395C00BB427FF756AF202C3FF45EAEB5EC017A3C
:10396C001F21224A05A8B7EEC77A013424B28DED87
:10397C00007B0AF0B7FD05A80AF062FE014605A817
:10398C0008F0F0FFB6F90230A342DFDC0121184841
:10399C00013708F0E7FF174809F01AF9B6F90030BB
:1039AC003FB2BB42B7DCD0E5134A44F244001349A2
:1039BC006844B2F90230B2F90020438047F250005B
:1039CC00A242684445527FF492AD93E56C400020CE
:1039DC0000000000F45000207C800020C00C00206F
:1039EC00F860002080900020A80D0020B00D002071
:1039FC00AC0D0020FC13002070500020F4CFFFFF12
:103A0C002DE9F047694D2024DFF8B4914FF0030AFB
:103A1C00674E2A46674901276748DFF8A8812DEDD4
:103A2C00028B9FED668A09F071FD4846A9F80040AB
:103A3C00B0EE480AA9F80240FFF7F6F92A463146DB
:103A4C00484609F063FDDFF88091B0EE480A404625
:103A5C00A8F80040A8F80240FFF7E6F92A463146DC
:103A6C004046DFF8688109F051FDB0EE480A48463F
:103A7C00A9F80040A9F802A0FFF7D6F92A4631466A
:103A8C004846DFF84C9109F041FDB0EE480A40463B
:103A9C00A8F80040A8F80270FFF7C6F92A4631468C
:103AAC004046DFF8308109F031FDB0EE480A484657
:103ABC00A9F80040A9F80240FFF7B6F92A463146AA
:103ACC004846DFF8149109F021FDB0EE480A404653
:103ADC00A8F80040A8F802A0FFF7A6F92A4631463C
:103AEC004046DFF8F88009F011FDB0EE480A484670
:103AFC00A9F80040A9F80270FFF796F92A4631465A
:103B0C004846DFF8DC9009F001FDB0EE480A40466B
:103B1C00A8F80040A8F80240FFF786F92A4631467B
:103B2C004046DFF8C08009F0F1FCB0EE480A484688
:103B3C00A9F80040A9F80240FFF776F92A46314669
:103B4C004846DFF8A49009F0E1FCB0EE480A404684
:103B5C00A8F80070A8F80240FFF766F92A4631462B
:103B6C004046DFF8888009F0D1FCB0EE480A4846A0
:103B7C00A9F80040A9F80270FFF756F92A46314619
:103B8C00484609F0C3FC4046B0EE480AA8F800A02D
:103B9C00A8F80270FFF748F92A4631464046BDECBA
:103BAC00028BBDE8F04709F0B1BC00BFA0130020A8
:103BBC00850000009D080000A419002000000000F2
:103BCC0064200020683000207050002074600020B9
:103BDC006C4000207C8000208090002058A50020A4
:103BEC007870002024D600205CB5002060C5002031
:103BFC002DE9F843DDF82080099FB3B116460C4639
:103C0C00054603EB010904E020460134C0474C454E
:103C1C000BD02B683246214628461B6998473A46FA
:103C2C0031460028F0D1BDE8F8830120BDE8F883C7
:103C3C002DE9F843DDF82080AAB11F460C46054655
:103C4C0002EB010901E04C450DD02B6841462046A2
:103C5C005E6AB8472146024628460134B047002820
:103C6C00F1D1BDE8F8830120BDE8F883002070474E
:103C7C0000207047002070474FF0FF30704700BFA6
:103C8C00704700BF30B583B005460C4607F060FDA9
:103C9C001C4B984204D800232B80238003B030BDEA
:103CAC00694609F02BF89DF805309DF80620013384
:103CBC009DF80410503ADBB292B20C2B98BF1F291E
:103CCC001CD87F2A1AD841EA431343EA422292B203
:103CDC009DF802009DF801102A80172898BF3B29F7
:103CEC009DF800300CD83B2B0AD8490141EAC02181
:103CFC0041EA53039BB2238003B030BD0022E7E7B7
:103D0C000023F8E7FFA5CE12012BF0B5054695B0C0
:103D1C003BD0022B01F1040140F20223684618BF8C
:103D2C00002304F0C7FF129B002B37D05C2004AF9C
:103D3C0009F066F99DF8042004461F4B0026DFF8B5
:103D4C0088E022733946029A1830A3609DF80C3033
:103D5C0022612375C4F800E0666004F06FFE6368AE
:103D6C004FF47A7115480133154AA6652E712E73DE
:103D7C002C61A0606360A9602A60124B38460093E6
:103D8C0004F09EFE284615B0F0BD44F20223043127
:103D9C00684604F08FFF129B002BC7D1139B002B9E
:103DAC00C4D14FF47A71064A2B7104AF2B732B617B
:103DBC00A9602A60E1E700BF60070020E006002050
:103DCC00B4060020F80500200407002070B5D0F8D8
:103DDC0084448EB01646C4B1002504F589640A46A5
:103DEC00684621462B468DF800508DF801508DF811
:103DFC00025002F009FE08B90EB070BD32462146E1
:103E0C00684602F095FF0EB070BDD0F8880400280B
:103E1C00F2D000F589650A462346684629468DF896
:103E2C0031408DF832408DF8334000F033FF0028DC
:103E3C00E2D032462946684601F066FA0EB070BDF3
:103E4C0030B5D0F884448FB0A4B100250A4668463A
:103E5C00214601238DF800508DF801508DF8025049
:103E6C0002F038FE08B90FB030BD684603F0FEFE14
:103E7C000FB030BDD0F888040028F4D00A460123D6
:103E8C00014668468DF831408DF832408DF833404C
:103E9C0000F07EFF0028E6D0684600F0E3FF0FB08C
:103EAC0030BD00BF30B5D0F884448FB0A4B100252C
:103EBC000A46684621462B468DF800508DF8015075
:103ECC008DF8025002F006FE08B90FB030BD6846FE
:103EDC0003F020F80FB030BDD0F888040028F4D0DF
:103EEC000A462346014668468DF831408DF832402B
:103EFC008DF8334000F04CFF0028E6D0684601F006
:103F0C0011F80FB030BD00BF30B5D0F884448FB07D
:103F1C007CB100250A46012304F5896168468DF8B9
:103F2C0000508DF801508DF8025002F005FD0FB0D5
:103F3C0030BDD0F888040028F9D00A46012300F5DA
:103F4C00896168468DF831408DF832408DF83340E8
:103F5C0001F06EF90FB030BD30B5D0F884448FB09D
:103F6C0074B100250A46684621462B468DF8005050
:103F7C008DF801508DF8025002F0ACFD0FB030BD41
:103F8C00D0F888040028F9D00A4623460146684632
:103F9C008DF831408DF832408DF8334000F0F8FE4A
:103FAC000FB030BDF8B590F8D034002B46D0D0F817
:103FBC0084240446002A46D0D369D0F890045F1EAE
:103FCC0000283ED00368DB6B984730B1D4F89004DE
:103FDC0030B303681B6C9847A0B1D4F88424002636
:103FEC00002A4AD0104604F033FC05463EB1D4F802
:103FFC009004A8B1036800215B6C984780B1D4F899
:10400C00842410E0D4F8900450B1036801215B6C57
:10401C00984728B1D4F884240126002AE2D12CE058
:10402C000025D4F884247B1BF2B190794FF40072F4
:10403C0002FA00F080B2A0FB0301F8BD00200021C1
:10404C00F8BD0646CEE7D0F88834F3B1D3F8307417
:10405C00D4F890040028B5D11946A3B106460846F9
:10406C0002F0CAF90546C1E7D4F88824002AE5D045
:10407C00D2F83C04A3FB0001F8BDD4F88814002945
:10408C00EDD11546B2E71D46CDE71F46E0E700BF70
:10409C0090F8D03463B1D0F8842462B191794FF4A4
:1040AC000073D0698B4001389BB2A3FB00017047B1
:1040BC00002000217047D0F88824002AF8D0D2F8CC
:1040CC003034D2F83C04A3FB000170472DE9F041D9
:1040DC00D0F8905492B04DB11F462B680446284638
:1040EC00DB699847B0F5405F064603D8002012B054
:1040FC00BDE8F0814FF4007009F0CEFB804600283B
:10410C00F4D0B6F1806F07AE02463B4629463046E6
:10411C0044D804F089F80746404609F0C5FB002F47
:10412C00E4D02B6828461B6A984794F8C054FF2D9E
:10413C0038D094F8C18401AAD4F8C4C404ABD4F820
:10414C00C8E404F594678DF804508DF80580CDF81B
:10415C0008C0CDF80CE007CA83E807008DF8118081
:10416C00CDF814C0CDF818E08DF8105093E8070086
:10417C0086E80700384696E80E0005F0A9FA94F890
:10418C00B134C4F890742BB901233946201D1A465A
:10419C0004F01CFD012012B0BDE8F08101F024FCFC
:1041AC000746B9E704F2944384F8C05494F8CC144D
:1041BC001D46184605F0E4FFC4F89054284605F057
:1041CC005FFB0028E6D10123D4F89014201D1A4679
:1041DC0004F0FCFCDEE700BF2DE9F041D0F8906460
:1041EC008AB00446002E48D090F8D034002B4AD127
:1041FC0090F8D134FE2B5AD090F8D204362835D909
:10420C0094F8C064FF2E71D094F8C18403ADD4F837
:10421C00C4C406ABD4F8C8E404F594678DF8006008
:10422C008DF80180CDF804C0CDF808E09DE80700BA
:10423C0085E807008DF80D80CDF810C0CDF814E09E
:10424C008DF80C6095E8070083E8070038460ECB24
:10425C0005F03EFA94F8B134C4F890746BB90123AC
:10426C003946201D1A4604F0B1FC07E007F02AFA83
:10427C00003018BF01200028C2D1002084F8D004DF
:10428C000AB0BDE8F08190F8D134FE2B16D094F82A
:10429C00D204362805D807F015FA003018BF0120D3
:1042AC00ECE73368304606A99B6C9847E6E71B4B56
:1042BC009868C0F340400028DFD0A1E7336830464F
:1042CC005B6D9847431C0546E1D048B994F8D1344E
:1042DC00FE2BD2D12E20032107F0FAF92846CDE788
:1042EC00012084F8D0040AB0BDE8F08104F29445B2
:1042FC0094F8CC1484F8C064284605F041FFC4F847
:10430C009054284605F0BCFA0028B6D10123D4F805
:10431C009014201D1A4604F059FCAFE700800042AF
:10432C002DE9F0410E4604468AB03C4806F0A4FB49
:10433C00FE2E84F8D16439D0362E03D900200AB071
:10434C00BDE8F0810025DFF8D8E001AA8DF8046003
:10435C008DF8055004AF039507ABCDF808E004F5D4
:10436C00946884F8C06484F8C154C4F8C854C4F880
:10437C00C4E407CA87E807008DF81150CDF814E0A3
:10438C0006958DF8106097E8070083E80700404613
:10439C000ECB05F09DF994F8B134C4F890842BB38E
:1043AC00284684F8D0040AB0BDE8F081002304F25A
:1043BC009445FF22194684F8CC3484F8C02428464E
:1043CC0005F0DEFEC4F89054284605F059FAA0B169
:1043DC002E2300250321184684F8D05484F8D234B7
:1043EC0007F076F928460AB0BDE8F0810123414672
:1043FC00201D1A4604F0EAFBD3E70123D4F89014ED
:10440C00201D1A4604F0E2FB0028E1D001222E23E5
:10441C0084F8D02484F8D23491E700BF451D000005
:10442C0040787D01F0B4184B0024184EFF2507216D
:10443C0017482927174AC3F89464174E1860184672
:10444C00C3F8A824C3F8AC1483F8B174C3F8A064FF
:10445C00C3F88444C3F88844C3F8904483F89C445C
:10446C0083F89D4483F8B54483F8BC4483F8CC446A
:10447C0083F8D04483F8D15483F8D254074A0849BE
:10448C00F0BC09F043B800BF84A00020B4070020A2
:10449C008407002000093D001C060020A01300200A
:1044AC00411D0000F0B500F1240385B005460E4611
:1044BC0001AC174693E8070084E807007201214617
:1044CC00286A01F025FF012806D13A462146286AC0
:1044DC0001F0E2FE05B0F0BD002005B0F0BD00BF5C
:1044EC0010B5044600F0F4FD002384F8313084F854
:1044FC00333010BD38B50D46144600F124010022AE
:10450C00006A01F0C9FE034628B1428901202A80C5
:10451C001B89238038BD38BD38B50D46144600F1D3
:10452C0024010022006A01F0B7FE034628B1C289BB
:10453C0001202A809B89238038BD38BD90F831201A
:10454C000AB10020704738B50D4611463822044692
:10455C0009F06CFD40230120256284F8313084F889
:10456C00330038BDF0B40C78202C03D111F8014F76
:10457C00202CFBD00E461E4F1160916035783446CE
:10458C0001362F2D18BF002D22D0A5F122041F2D8E
:10459C00E4B28CBF002101211D2C0ED90124A142B3
:1045AC0013D205F0BF013C290FD05C2D0DD02E2D60
:1045BC00E4D0202DE2D09660E0E727FA04F404F072
:1045CC00010484F00104A142EBD30020F0BC70473D
:1045DC00202D01D02F2D05D114F8011F2029FBD03F
:1045EC002F29F9D01C601146F0BC01F05BBD00BF57
:1045FC00010100312DE9F04F90F8333083B00546BE
:10460C00DE0760D55C060E46914640F1BD80D5E9CB
:10461C000001D5E9042310EB090A41F1000B5B45BD
:10462C0008BF5245C0F0B680B9F1000F74D0AA464D
:10463C004C4640F2FF17FAE806012B6AD3F83824EF
:10464C0002EA0008C8F3080BB8F1000F6AD150EA6F
:10465C00010279D195F8312051064CBFD3F83414AE
:10466C00E969A9614FEA58200239D3F82C24BC42DD
:10467C0093F845E4024401FA0EF111442ED9BBF132
:10468C00000F2BD1D3F81C22914227D0B4F5806FA8
:10469C0061D34FF0010C4FEA54280CFA0EFEC0EB1C
:1046AC000E00804528BF804691423DD801EB0800A2
:1046BC00824239D203F504700191009306F0CAF9D5
:1046CC00009B019980BB95F832304FF0FF3043F0DE
:1046DC00020385F8323003B0BDE8F08F03F50470A7
:1046EC00002206F087F90028EDD0CBF5007800EB1E
:1046FC000B013046A04528BFA046424606F014FDEB
:10470C00404600214644D5E9002380185941B4EBBA
:10471C000804C5E9000190D10024C4EB090003B0E2
:10472C00BDE8F08FA9699DE7D3F8140232464346E1
:10473C00D0F800E0DEF814B0D8470028C3D04FEA18
:10474C00482800214046DDE795F83320520610D565
:10475C00A969013185E7D3F81402324603681B6955
:10476C0098470028AFD04FF4007000214FF4007828
:10477C00C8E718465246A96901F0AAFD0028A2DB39
:10478C000BD02B6AA9696DE790F8313018073FF50B
:10479C003EAF49E7C0EB020946E795F8313013F01C
:1047AC00500FBAD18FE700BFF0B583B00122044699
:1047BC0085690DF10701D0E90067FFF71BFF0128A0
:1047CC00A5610CBF9DF807004FF0FF30C4E90067EE
:1047DC0003B0F0BD2DE9F04F90F831E085B0044600
:1047EC008569BEF1000F36D016461F46D0E9000190
:1047FC00994208BF904265D056EA070330D1002396
:10480C00A3610120C4E9006705B0BDE8F08F10F189
:10481C00FF3241F1FF3322FA0CFC03FA08F823FAB9
:10482C000AFA50EA01034CEA080C4CEA0A0C4BD089
:10483C00E34549D3CCEB0B0BA94604F118085D46B4
:10484C004246002DDDD0A169013D206A01F040FDFA
:10485C000028F5DC4D460020A56105B0BDE8F08FC1
:10486C001EF0080F27D1236A16F1FF3893F845C4C0
:10487C0047F1FF39C24603930CF1090CCB4694F86F
:10488C0033905FFA8CFC19F0400FCCF120082AFA17
:10489C000CF2CDE900AB019BACF1200A03FA08FB4A
:1048AC0023FA0AF342EA0B0242EA030BAFD0E369A4
:1048BC005B44A361A5E7D4E90423BB4208BFB24221
:1048CC00C9D3D0E70120C8E71EF0400F02D1E3693D
:1048DC00A361B1E7039BD3F83434F9E72DE9F04F2A
:1048EC008FB08146019390F831302BB991F831306B
:1048FC000C4613F0500F08D10023184689F83130BC
:10490C0089F833300FB0BDE8F08F019B154603F0EA
:10491C000303012B06D0022B00F0FF80002BEBD100
:10492C00012200E00222019B03F0080313430293CF
:10493C00002D40F0DD8003270026029BB34643F098
:10494C0040030393202206A92046FFF753FEF0B143
:10495C002028D1D19DF81830180645D4BBF1000F92
:10496C0004D12268D4F818A0A2F12008BB4503D2C8
:10497C000BF1010B5FFA8BFB002B00F0D080202297
:10498C0006A920460026FFF735FE0028E0D1019B42
:10499C009905B1D5029B9A07AED5002DACD0BB457D
:1049AC0080F0C6802B465E4655469A460AE0202883
:1049BC00A2D11EB92268A569A2F12008DEB2B742C5
:1049CC0040F2B380202206A92046FFF713FE731C89
:1049DC000028ECD12046D4F818B000F0A9FB002830
:1049EC008AD0C4F818B0EAE756BBBB4538BF4FF0C5
:1049FC00000B852BA6D1314638224846012609F0FA
:104A0C0015FB9DF81C309DF81920D90689F830202B
:104A1C0003F0370258BF42F0080289F831202368AE
:104A2C00226AA169203BC9F82020C9F82830C9F8AE
:104A3C00241094F83330C3F3801389F82C3081E7B9
:104A4C00C02B29D0C12B9AD12A4606A9484601F081
:104A5C009DFA002867D0AB89002B7FF473AFAA684E
:104A6C006B689A427FF46EAF019B1F053FF544AF14
:104A7C00019B13F4884F40F0AB8099F833309E07BC
:104A8C0000F1A680019B5B053FF536AF019B5804F6
:104A9C0000F1BC80012035E79DF819309DF8082005
:104AAC009B0789F8332003D59DF80C3089F83330F7
:104ABC000B99DDE90823C9F81C10DDE90C01C9E9E3
:104ACC000423C9E90201002DCED09DF81B304FF014
:104ADC0000002A6929689A42A88169607FF44FAF67
:104AEC00BDF81C60AB8AF61AB6FA86F6760929E789
:104AFC002B69664F0E33A7FB0337D4E90023FF085D
:104B0C00134307F10207FFB23FF416AF0021002256
:104B1C000023A161C4E900230EE7032203E7002D63
:104B2C007FF435AFE8E606460CE75346AA461D4629
:104B3C0094F833B038220021484609F077FACBF3C9
:104B4C00801B0823226A002689F82CB0C9F824A0FF
:104B5C00C9F8288089F831302B68C9F820206B609F
:104B6C00AE818FB307F1FF3834465FFA88F8012223
:104B7C0021464846FFF796FC834600283FF4BCAE1E
:104B8C0090F90030002BFFF6B7AE2022002109F07F
:104B9C004DFA002E43D0012C5ED0C1235C460BF1A4
:104BAC001E0A8BF80030AB8928461BB96A68AB68C3
:104BBC009A4205D005F06CFF24F8020FA245F2D101
:104BCC000136F4B2BC42D2D3484600F081FA99E6E1
:104BDC0099F8313013F0110F7FF48EAE019B5D0507
:104BEC007FF554AF99F833309C077FF585AE0022E2
:104BFC0000234846FFF7EEFD00283FF47DAE484603
:104C0C0000F0A8FC00283FF477AE43E74846D9E90A
:104C1C000423FFF7DFFD00287FF43CAF6CE685230F
:104C2C008BF800301A4B89F830808BF801801B68A8
:104C3C001BB30DF113020DF1160105A89847BDF831
:104C4C001410BDF816209DF81330ABF80A10ABF811
:104C5C0008208BF81430B3E7029BC0228BF801407C
:104C6C0063F07F038BF8002089F833302B698BF8C5
:104C7C000330AB8AABF80430A2E745F22163ABF802
:104C8C000A30ABF80E30ABF8123099E78988888877
:104C9C009CD500202DE9F043064697B000200D4628
:104CAC0096F8311001928DF851008DF852008DF864
:104CBC005300ADF8140029B9994695F8313013F02A
:104CCC00500F03D1002017B0BDE8F08313781446C1
:104CDC002F2B32D04FF00008214601AB02AA3046F0
:104CEC00FFF740FC0028EDD0019B1B78002B39D03E
:104CFC002946002302AA3046FFF7F0FD0028E1D038
:104D0C00344608AF06F1300E2068103454F80C1CF1
:104D1C003D4654F8082C103754F8043C74450FC524
:104D2C00F2D1206808AD3860304600F0D1F986F831
:104D3C00318086F83380019CCEE7013401942178D0
:104D4C002F29FAD0B9B108A8382200212F6A0546BC
:104D5C0009F06CF94022012310978DF851208DF841
:104D6C005330B7E74B4602AA29463046FFF7B6FD4B
:104D7C0017B0BDE8F083382230462C6A09F056F99A
:104D8C0040230120346286F8313086F833009AE7EC
:104D9C0019B101F58961FFF77DBF0846704700BF67
:104DAC00F0B490F8314024B991F8313013F0500F31
:104DBC0002D10020F0BC7047D1E90067002706F053
:104DCC001F0656EA0703F4D113462246F0BCFFF740
:104DDC0085BD00BF8169F8B50446006A01B1013197
:104DEC00012201F0A9F9012806462ED9012301461A
:104DFC00206A1A4601F0FAF9074630B3A3693BB3AF
:104E0C0094F83320510612D5591C8E4226D022F02C
:104E1C004002E16984F8332005E0206A01F09CFA35
:104E2C00294690B1A3694D1C99422A46F5D34FF0FF
:104E3C00FF323146206A01F08FFA30B1A16969B1B5
:104E4C003246206A01F088FA40B900273846F8BD8E
:104E5C0094F8333043F0400384F83330A66138467D
:104E6C00F8BD00BF90F833309A073BD5C1692DE9E6
:104E7C00F0410546A9B9002408E00378E4B203F038
:104E8C007F03037095F83030A3422DD321460122C5
:104E9C0028460134FFF706FB0028EED10020BDE8C0
:104EAC00F0815B06006A37D590F845240023D5E9DC
:104EBC000267093216F1FF36D2B247F1FF37C2F161
:104ECC00200EA2F1200426FA02F207FA0EFE27FAAF
:104EDC0004F442EA0E022243013201F087F9002861
:104EEC00C9D1DBE70020704700232C6A85F83130EC
:104EFC00204685F8333005F0ADFD0028CED004F502
:104F0C00047005F0A7FD0028C8D0D4F8400403684D
:104F1C00BDE8F0411B6A184701F030FA0028AAD10D
:104F2C00BCE700BF90F83130D90601D4002070479F
:104F3C0010B5002288B000230446FFF74BFC06E0B6
:104F4C00202819D19DF800301A0615D433B120222F
:104F5C0069462046FFF74EFB0028F1D194F8333018
:104F6C000822204643F0020384F8312084F83330C1
:104F7C00FFF778FF08B010BD002008B010BD00BFCF
:104F8C002DE9F043002583B00746DFF84091A84691
:104F9C00002229463846FFF785FA044630B10378DB
:104FAC00C02B74D0C12B2CD0852B09D097F8323064
:104FBC00002043F0010387F8323003B0BDE8F083E2
:104FCC0097F83130D9F8006003F03703838086B14D
:104FDC000DF103020DF1060101A8B047BDF8062042
:104FEC00BDF804309DF80310A28161752282E38123
:104FFC0063823A6A92F8103243F0010382F810325D
:10500C0023784FEAC830A3F185060022012140EA3B
:10501C005808B6FA86F613FA88F376091FFA83F85D
:10502C000A444FEAC83303211F2A43EA58030AD81B
:10503C00A05C012A10FA83F31FFA83F801D1002E29
:10504C00EED10121ECE7013597F83030EDB2AB42EF
:10505C009ED2012207F12401386A01F01DF90028C3
:10506C00A4D03C6AA0F80280204605F0F3FC00288E
:10507C009CD004F5047005F0EDFC002896D0D4F813
:10508C00400403681B6A984700288FD095E797F86F
:10509C00333013F0400F437814BF43F0020323F076
:1050AC0002034370386AF969D7E904236161C4E9E2
:1050BC000223D7E90223C4E9062390F8103243F007
:1050CC00010380F8103223789BE700BF9CD50020A9
:1050DC0090F8312092B138B590F8332011060FD4E6
:1050EC00056A0446284605F0B5FC88B994F83230B8
:1050FC00002043F0010384F8323038BD01207047A2
:10510C0002F07F0280F83320BDE83840FFF738BF4B
:10511C0005F5047005F09EFC0028E7D0D5F8400496
:10512C0003681B6A98470028E0D0012038BD00BFF7
:10513C00F8B590F8313005465A064FD480682B6A82
:10514C00D3F83C341844B0F1806F01D30020F8BD83
:10515C002846FFF73FFE0028F8D0286A0122AE69E6
:10516C0090F84534023ED0F82C149E4012FA03F30A
:10517C000E4415D000243119052200F504700134B9
:10518C0005F038FC4FF4007200210028DED008F046
:10519C004DFF286A012390F845249340A342EAD896
:1051AC0095F831305B0614D495F83330002763F052
:1051BC007F0385F83330D0F83C64D5E90223D5E978
:1051CC00040192197B4180197941C5E90223C5E993
:1051DC0004012846BDE8F840FFF77ABF006A01F0E9
:1051EC00B9F9ACE710B591F8314014F0500F01D17A
:1051FC00002010BD40F602230446FFF76FFB002889
:10520C00F6D01023204684F83130FFF791FF0028A8
:10521C00EED0A169002320460022E161FFF7DAFA03
:10522C00C123204684F83330BDE81040FFF750BF4F
:10523C002DE9F041064696B000200C4696F8311048
:10524C000192ADF814008DF851008DF852008DF8D4
:10525C00530029B9984694F8313013F0500F03D10C
:10526C00002016B0BDE8F081137811462F2B34D0F6
:10527C0001AB02AA3046FFF775F90028F0D0019B6C
:10528C001B78002B37D0002302AA21463046FFF7AB
:10529C0025FB48B9B8F1000FE2D0214602AA3046EE
:1052AC00FFF7A0FF0028DBD0344608AF06F1300E24
:1052BC002068103454F80C1C3D4654F8082C103758
:1052CC0054F8043C74450FC5F2D1206808AC386022
:1052DC003046FFF705F90199CAE7013101910B78C6
:1052EC002F2BFAD0216A08A8FFF728F90028B7D08D
:1052FC0008AC0199BCE702AA21463046FFF772FFC1
:10530C0016B0BDE8F08100BFF0B590F831409DB00B
:10531C00002314F0180F8DF831308DF832308DF8E1
:10532C0033308DF869308DF86A308DF86B3003D0DE
:10533C000B6A046A9C4202D000201DB0F0BD0446EA
:10534C0040F601236846FFF7A5FC0028F4D025465B
:10535C0004F1300E0EAF2868103555F80C1C3E4683
:10536C0055F8082C103755F8043C75450FC6F2D18A
:10537C00286809AA04F1240338609DF8305007CA44
:10538C0083E8070094F83330204684F8305063F0FB
:10539C007F0384F83330FFF79BFE0028CCD000212C
:1053AC00022208230EA815918DF86B208DF8693018
:1053BC00FFF758FDC1E700BF2DE9F04F90F83140E1
:1053CC0083B01F4624079DF830A09DF834909DF8BB
:1053DC0038B09DF83C3004D5A2F2BC7294B27F2C4C
:1053EC0004D90026304603B0BDE8F08F7A1E0B2A94
:1053FC00F7D80AF1FF321E2AF3D8BBF13B0F98BF46
:10540C00B9F1170F8CBF012600263B2B88BF46F045
:10541C000106002EE5D1019305468846FFF758FE9C
:10542C00019B0028DDD0591013F0010F4AEA4717F1
:10543C0008F0010341EA4B11B24647EA442708BF82
:10544C004FF0000B41EAC92918BF4FF0640B3446EA
:10545C00BFB21FFA89F90193002251462846FFF783
:10546C0021F80028BDD00278852A4FD0BAD3A2F1FA
:10547C00C0010129B6D84FEAC43EA2F18503002130
:10548C004EEA5404B3FA83F34FF0010E12FA84F48B
:10549C005B09A4B27144E2034FF0030E1F2942EAE8
:1054AC0054020AD8445C012914FA82F294B201D154
:1054BC00002BEFD14FF0010EECE70AF1010395F848
:1054CC0030205FFA83FA5245C6D2012205F124013D
:1054DC00286A00F0E1FE002883D02D6A448028461B
:1054EC0005F0B8FA00283FF47CAF05F5047005F020
:1054FC00B1FA00283FF475AFD5F8400403681B6A75
:10550C009847064600283FF46CAF6BE795F83120BE
:10551C00296A02F03702019B828091F8102242F036
:10552C00010281F8102213B1A0F81090478218F0F4
:10553C00020F04D080F814B0A0F80890478118F03E
:10554C00040F04D080F815B0A0F80C90C781027835
:10555C0091E700BF90F833309A0718D5F0B5C569BC
:10556C0083B08DB103F04003044603F0FF0683B90A
:10557C008169002942D10195C1612946206A00F058
:10558C00FDFE38BB002000E0012003B0F0BD002080
:10559C007047006AA16990F84524D4E90267093282
:1055AC0016F1FF36D2B247F1FF37C2F1200EA2F14D
:1055BC00200326FA02F207FA0EFE27FA03F342EA58
:1055CC000E021A430132B1B1013D4B1C691A019311
:1055DC000A4402BB94F833302046D4E9006763F0E8
:1055EC007F03C4E9026784F83330C4E90467FFF72A
:1055FC006FFD03B0F0BD0195E161EAE702AA006A14
:10560C0042F8046D00F064FE0028BBDB0AD1019D5A
:10561C00002DDFD0B1E70023019900F0E7FD002851
:10562C00D8D1AFE74FF0FF32A169206A00F094FEA9
:10563C000028ECD1A6E700BF2DE9F04F90F83330ED
:10564C0083B004469D07009240F1B3801A07884648
:10565C0000F1A880009B002B00F01D812146009DCD
:10566C004FF0010AF1E8062393460191206AA169E3
:10567C00D0F8386406EA0B06C6F3080956BB0029B5
:10568C0000F0CC8094F833305B0640F1E08090F869
:10569C004524E3690932D4E902BCD2B21BF1FF3BC9
:1056AC00C2F1200EA2F120074CF1FF3C2BFA02F2C2
:1056BC000CFA0EFE2CFA07F742EA0E023A431A4491
:1056CC009142C0F0C1802046FFF784FB002870D0C7
:1056DC00206AA169760A0239D0F82C7490F845E456
:1056EC00374401FA0EF13944B9F1000F6BD1B5F51D
:1056FC00007F2CBF00220122002A64D1B5F5806FF7
:10570C00C0F090800AFA0EFE6B0AD0F81CC2C6EBF1
:10571C000E06B34228BF334661454FEA432708D8EB
:10572C005E18B44505D24FF0FF3680F81022C0F851
:10573C001C62D0F8140242460668B66AB0470028CC
:10574C0037D038460021B844ED1BD4E90023D4E906
:10575C00046712EB000B43EB010C674508BF5E4579
:10576C00C4E900BC07D294F8331061F07F01C4E99E
:10577C0004BC84F83310002D7FF478AF5A4663468E
:10578C00D4E90201994208BF904278D3434B1B687D
:10579C00002B7ED094F83330009863F07F0384F8AC
:1057AC0033300DE0D0E90423FFF714F800287FF420
:1057BC0051AF94F83230002043F0010384F83230BA
:1057CC0003B0BDE8F08FB9F1000F25D1D4E9042363
:1057DC00D4E900679F4208BF964234BF01220522DC
:1057EC0000F5047005F006F90028E2D0C9F5007741
:1057FC0048444146AF4228BF2F46B9443A4605F0CB
:10580C0093FCB9F5007F9CD1206A00F5047005F07B
:10581C0021F9002895D1CCE70122E1E7E169F1B14A
:10582C00A16157E7D0F81C32994221D0D0F814026C
:10583C00424603685B6A98470028BAD04FF4007060
:10584C0000214FF400777EE70131A16142E7019A14
:10585C0000F03EFD0028ACDB7FF43AAF33E7204686
:10586C00FFF7B8FA0028A4D0A169206AE16131E7FA
:10587C004FF0FF3380F81022C0F81C32D6E794F8B2
:10588C003310009861F07F01C4E9022384F83310CF
:10589C0096E7009894E7D4E9002371E79CD50020A3
:1058AC0070B5044608460D4608F0CAFE2368024649
:1058BC00294620465B68BDE870401847836801465E
:1058CC00C3F3080363B100200A69D0540133B3F564
:1058DC00007FF9D1C8680A69036809685B6A1847D0
:1058EC0001207047826803460069C2F3080230B495
:1058FC00815440F2FF145D689868A24201EB750177
:10590C0000F101005960986002D0012030BC704752
:10591C00D868196802684D1C546A1D601A692346C0
:10592C0030BC184738B50C46C9B20546FFF7DAFF4C
:10593C0000B938BD210A2846BDE83840FFF7D2BF70
:10594C002DE9F8430023804601601E4683604360C6
:10595C00B0B205F0ABF9B042814605460DD0014618
:10596C004046FFF7DFFFA0B30136B6F5803FEFD31B
:10597C004046BDE8F843FFF7A1BF741CB4F5803F67
:10598C0014D1C6F580374FF48034B7F5007F1AD2A6
:10599C00A9B240460135FFF7C5FFD0B1A542F7D3F8
:1059AC002E46E2E70134B4F5803FEAD0A0B205F010
:1059BC007DF9A042F6D0A71BB7F5007F03D2A64213
:1059CC00E6D34E46C4E74FF6FF714046FFF7AAFFF9
:1059DC0010B90020BDE8F883B9B24046FFF7A2FF2A
:1059EC000028F6D02646C0E72DE9F04F81461F4629
:1059FC000B6889B0C9F80C100846C9F810200E467F
:105A0C00DB6915469847B0F5801F12D2002F69D07C
:105A1C003B681522AE4938465B6898473B68384668
:105A2C000F22AC495B6800249847204609B0BDE8BA
:105A3C00F08F04460023012201E0944203D9013384
:105A4C005200DBB2F9D11C2B51D90122A3F10B0866
:105A5C0048FA02F85FFA88F102FA08F20691049209
:105A6C0001220133134102FA03F303FA02F2059304
:105A7C009B0001920293029B00214FF40072284676
:105A8C00E31A8A464FF0010B23FA08F3039303FA47
:105A9C0008F8019B984408F0C9FAFF230722FE205E
:105AAC0085F8BFB185F8C2214AF6552E85F8C30199
:105ABC00514685F8C4312A4685F8C531304685F8FB
:105ACC00C0B185F8C1A1019BD6F800C0C5F8C6319C
:105ADC00C5F8CA81DCF82430A5F8FEE19847D0B9A6
:105AEC00002F9BD10024204609B0BDE8F08F1A2B63
:105AFC004FF0080800F22D824FF40043CDF81880C7
:105B0C0002934FF4804301934FF4807304934FF44A
:105B1C0000530593AFE751464FF40072284608F046
:105B2C0085FA059B762201982B6590216B654FF0C9
:105B3C00410C039B4FF0540E6A704FF04502EB651D
:105B4C009DF818302864A865202085F86D306FF01A
:105B5C001403EA704FF05802C5F844A0C5F8488009
:105B6C004FF00908C5F84CA06C664FF04604A5F838
:105B7C006AA085F86EB04FF0040B85F870A04FF456
:105B8C00807A2B7005F17703A97005F2FD112A714B
:105B9C00F42228726872A8726FF07F006C7185F81D
:105BAC0006C085F807E0C5F860B0A5F868A085F8D0
:105BBC006C8085F86F0003F8012F9942FBD14FF0F0
:105BCC0000084AF655234446A5F8FE31A8F16A03AD
:105BDC00012B06D9B8F1700F03D015F8083003EB80
:105BEC00740408F10108B8F5007FEFD133682A4638
:105BFC00019930465B6A984700283FF471AF3368CF
:105C0C002A46019930465B6A0C31984700283FF4CC
:105C1C0067AF019B42460021284603F1010A08F0B8
:105C2C0005FA019A4AF65523CDF81C9005F2FF1897
:105C3C0002F1090B6A1EA5F8FE31914606924B46FD
:105C4C0013F8012F984502EB7404F9D133682A46F6
:105C5C00514630465B6A984700283FF441AF3368A1
:105C6C002A460AF10C0130465B6A984700283FF43B
:105C7C0037AF0AF1010AD345E1D1019B4FF4007211
:105C8C0000212846DDF81C9003F10B0A08F0CEF930
:105C9C00069B13F8012F984502EB7404F9D1336875
:105CAC002A46594630465B6A984700283FF418AF9D
:105CBC0033682A460BF10C0130465B6A9847002882
:105CCC003FF40EAF0BF10103534505D09B46DFE7C4
:105CDC00D00D0020340E00202B1F05F5FE7243F86A
:105CEC00044F9A42FBD1336851462A4630465B6AD0
:105CFC00984700283FF4F4AE33680BF10D012A46A7
:105D0C0030465B6A9847044600283FF4E9AE2FB151
:105D1C003B680C22974938465B689847039B4FF4C5
:105D2C000072002128464FEA8308059B08F20728D9
:105D3C009B46019B9B4408F079F94FEA5823F820C5
:105D4C0005F11301FF229E462B46287003F8012F04
:105D5C009942FBD17346002B31D03B1C4FF0000A0B
:105D6C00CDF818904FEA983818BF0123F1460593E7
:105D7C00234654469A4605E0002C00F0F08001348E
:105D8C00A14519D001227C493846B4FBF8F308FB35
:105D9C00134323B9059B13B13B685B689847336881
:105DAC002A4604EB0B0130465B6A98470028E3D186
:105DBC00002F7FF433AE95E65446DDF81890002F93
:105DCC0035D03B6802226D4938465B689847039B87
:105DDC0003F10708049B4FEAD80808F2FF1A4FEAB0
:105DEC005A2A9A453FF61AAE4FF400720021284603
:105DFC0008F01CF907232B70BAF1000F7CD04FF080
:105E0C00000B07E0BBF1000F00F0B0800BF1010BB1
:105E1C00DA456FD033682A46029930465B6A59449A
:105E2C0098470028EED1002F7FF4F8AD5AE6039B7B
:105E3C0003F10708049B4FEAD80808F2FF1A4FEA4F
:105E4C005A2A9A453FF64EAE4FF400723946284610
:105E5C0008F0ECF807232B70BAF1000FCFD1019B9F
:105E6C0048464FEA430A049B0AEB0301FFF768FD1F
:105E7C0000283FF437AED9F80830049AB3EB422F20
:105E8C003FF630AE049B4FF40072002128460AEB1B
:105E9C00430A08F0CBF803228123822102202A70C6
:105EAC0085F820300023686385F84010D9F8041079
:105EBC006A656964D9F80820C5F83880AA65049A1F
:105ECC00EB65002A3DD0984607E0B8F1000F31D0C1
:105EDC0008F10108049B984533D033682A460AEB35
:105EEC00080130465B6A98470028EED1002F7FF4FA
:105EFC0095ADF7E5002FB2D0019B384620494FEA0B
:105F0C00430AFFF7CDFC049B48460AEB0301FFF75D
:105F1C0017FD00283FF482ADD9F80830049AB3EB92
:105F2C00422F3FF67BAD002FACD016493846FFF719
:105F3C00B7FCA7E74FF400724146284608F076F804
:105F4C00C6E7002F3FF471AD38460F49FFF7A8FCA8
:105F5C006BE54FF48072CDF81880049280E54FF415
:105F6C0000722146284608F061F808E785F800B071
:105F7C004CE700BFE80D0020F80D0020100E0020AB
:105F8C00FC0D0020140E0020240E00202DE9F04101
:105F9C000C46154601F11E08AB89284634F8026FF1
:105FAC001BB96A68AB689A420ED004F071FD04F01C
:105FBC007DFE0746304604F079FE874209D1444500
:105FCC00EAD10120BDE8F081B6FA86F04009BDE8BF
:105FDC00F0810020BDE8F0812DE9F84F90F83130C8
:105FEC008946002B45D090F830308046012B53D990
:105FFC00013A8A4602274FF0000B8E1800223946D0
:10600C004046FEF74FFAA0B30378C12B31D10446BA
:10601C0000F11E0519E000F510539BB2B3F5806F2B
:10602C0027D24FEA8B2B1E4BC0F309000BEA03035C
:10603C00184300F580305146324604F0A1FD8246EB
:10604C00B8B1AC424FF0000B1FD034F8020FBBF1CB
:10605C00000FE0D100F520539BB2B3F5006F0ED3C7
:10606C000028E8D1C9EB0A0000238AF80030BDE80B
:10607C00F88F0023184689F80030BDE8F88FB3F587
:10608C00806FF6D2AC428346DFD1013798F83030BE
:10609C00FFB2BB42B2D2E5E78A460020E4E700BF7C
:1060AC0000FC0F00F8B50D4600234FF6FF762A686A
:1060BC001946AB811C466A602B6116E004F0E8FCC3
:1060CC00B04221D004F0F2FD2B69E203A98907123A
:1060DC00013342EA54022B6152FA80F0C0F34E03B2
:1060EC0043EAC03017FA80F4A4B228460029E5D15F
:1060FC006A68AB689A42E1D12869AC820138FE2803
:10610C008CBF00200120F8BD0020F8BD38B50C462E
:10611C00D0F82414154600F50470012201EBD411BB
:10612C0004F068FC034628B1A4000120C4F3080461
:10613C001D5138BD38BD00BF2DE9F84F8046914642
:10614C008B46002943D08F1ED8F830349F423AD268
:10615C0007F007050123C7F3C80A03FA05F5EDB2EA
:10616C003E463C46D8F82C140022404601EB143134
:10617C0004F040FCC0B110F80A100AE04A4529D0DE
:10618C00A74210D0D8F83024944216D213F0FF0551
:10619C000CD001340D424FEA4503A4EB0602EDD0BE
:1061AC00A7422646EED10120BDE8F88F0AF1010A7C
:1061BC000125BAF5007FDED101E0002634464FF010
:1061CC00000A0125CEE700270125BA46C8E7D0F81A
:1061DC002074B9E7BBF1000F04D1B9F1010F08BF6E
:1061EC00C8F82064B01CBDE8F88F00BF2DE9F0475B
:1061FC00023915469A46D0F830244B19934238D8B8
:10620C008046BAF1000F37D1D0F82034994238BF0C
:10621C00C0F8201401F007040122D8F82C34C1F383
:10622C00C80602FA04F403EB1139E4B20122494620
:10623C004046914404F0DEFBD8B1871900F500709C
:10624C0017F8012B224282EA04024FEA440414BFDD
:10625C000126002656450CD0013D07F8012C17D01D
:10626C0014F0FF04EED1874226464FF00104E7D12B
:10627C00DCE70020BDE8F087D0F820048342C9D9C0
:10628C008142C7D8934228BF0023C8F82034C1E705
:10629C000120BDE8F08700BF70B50E460446D0F86B
:1062AC00385400F50470496833682940D4F82C54EC
:1062BC00023B94F8454405EB5121A340194404F0EA
:1062CC0099FB18B17368C3F30803184470BD00BF81
:1062DC0038B5D0F8303401338B4216D30C46D0F895
:1062EC002414154600F50470002201EBD41104F0BF
:1062FC0081FB50B1A100C1F3080143585A1C02D0D4
:10630C002B60012038BD002038BD4FF0FF3038BD68
:10631C0070B54C680D46D0F838340646A1182340A9
:10632C00696090F845441A440934E4B222FA04F442
:10633C003CB12B7A3BB12B6801332B60013C002C18
:10634C00F7D1012070BD2A4629683046FFF7C0FFFF
:10635C000128F3D070BD00BF01290DD9D0F830341D
:10636C000133994210B403D900205DF8044B7047F7
:10637C005DF8044BFFF7CABE002070472DE9F041D1
:10638C000C4682B005468846214601AA2846FFF7EE
:10639C009FFF012C0746C0F3C0162146284626D97C
:1063AC00324626BBD5F8303401339C421FD8FFF758
:1063BC00ADFE04F1010E41463346C8EB0E02B0B1FE
:1063CC00284647B1019CA645DED0FFF70FFF70B100
:1063DC00019CA046D8E7621C3B4641462846C8EBC8
:1063EC000202FFF703FF10B102B0BDE8F0810020FC
:1063FC0002B0BDE8F08100BF2DE9F84300248046CF
:10640C00D0F82C6400F50477254631460022384636
:10641C00013604F0EFFA28B300F1FF3ED8F830C48F
:10642C0005F580591EF8010FFF2813D048B108223A
:10643C00012318424FEA430118BF0134013ACBB291
:10644C00F7D10835AC4509D94D45DED01EF8010F02
:10645C00FF28EBD108350834AC45F5D8C4EB0C005B
:10646C00BDE8F883BDE8F8832DE9F041002304462C
:10647C004FF0FF3600F504771546C0F84014416024
:10648C001A46C4F814123846194684F8443423705A
:10649C0084F81032E660C4F81C6204F0ABFA042DE8
:1064AC000DD8064658B16DB905222949F01C08F0E3
:1064BC0035F9034618B996F86C20092A1AD0002031
:1064CC00BDE8F0816B1E00EB031393F8BE2112F0B4
:1064DC007F02F4D193F8C231002BF0D000EB0515FC
:1064EC003846D5F8B651294604F084FA06460028F9
:1064FC00DAD1E4E7326D4FF001080146204602EB99
:10650C00050E4246C4F824E4776DC4F82874B76DC0
:10651C003D44C4F82C54F56DC4F83054356EC4F8B1
:10652C00345496F86D50C4F8203405F1090384F8FE
:10653C00455408FA03F35D1EC4F83C34C4F83854CF
:10654C00FFF7FAFD4023404684F84434BDE8F0815F
:10655C00440E002070B582B0D0F8341405460024E7
:10656C0002AE46F8041D01E009D0019932462846D6
:10657C00FFF7AEFE002804F10104F5DA002495F8CB
:10658C0045040930C0B204FA00F002B070BD00BF7F
:10659C0038B50D4604462422002107F047FDA560BE
:1065AC00EB79102B05D0202B08D00C2B01D0002020
:1065BC0038BD202301202370A07038BD402301205A
:1065CC002370A07038BD00BF024638B552F8105F7A
:1065DC0004468068294602F0AFF850B155B12369E2
:1065EC000135AB42A37818BF03F0BF0363F07F0300
:1065FC00A37038BDA37843F04003F7E7F8B50378F0
:10660C0003F020032BB903F0FF044169194B9942A5
:10661C0002D900263046F8BD0546FFF7D5FF0646E1
:10662C000028F6D0A8682F698379023F4269017966
:10663C009F40174441B913E007F0F8FC0134A868F7
:10664C00E4B20379A3420AD90522E119283004F0F7
:10665C00D1F94FF4007200210028EDD1D9E78379EC
:10666C004FF40072696902FA03F311FA83F36B6158
:10667C00D0E700BFFFFD1F0010B5044680680A4636
:10668C002830A16904F0B6F920B1A38803F00F03F8
:10669C0000EB431010BD00BF30B590F9023083B051
:1066AC000446002B19DBA56805F1280004F0D2F98B
:1066BC0030B96378002043F00103637003B030BD40
:1066CC0005F50E7004F0C6F90028F2D028680368AE
:1066DC001B6A98470028ECD0F0E70121FFF7CCFFAC
:1066EC0005460028E5D00378E52BE2D023781B077C
:1066FC0001D5E369C361236A0B491A0C6B830B68E0
:10670C00AA8263B10DF103020DF1060101A89847AD
:10671C00BDF80430BDF806202B836B82EA82A37887
:10672C0003F07F03A370BEE79CD5002010B503785F
:10673C00044623B9002301202370A37010BDFFF77A
:10674C00ABFF00232370A37010BD00BF70B503789E
:10675C0005460C46BBB928460021FFF78DFF0346C2
:10676C00A8B1066801205D689968DA6826606560E2
:10677C00A160E2601E695D699969DA6926616561EB
:10678C00A161E26170BDFFF787FF0028E3D1002013
:10679C0070BD00BF30B589B00D4614466946FFF791
:1067AC00D5FF28B1BDF81020BDF80E302A8023800B
:1067BC0009B030BD30B589B00D4614466946FFF7B7
:1067CC00C5FF28B1BDF81820BDF816302A802380EB
:1067DC0009B030BD2DE9F0410C7888B014F0700F81
:1067EC0003D1002008B0BDE8F08140F60223054635
:1067FC000C4601F077F80028F3D00122102328462C
:10680C00AA702B70FFF7FAFE0028EAD02A692B78C1
:10681C002A62002B7FD101212846FFF72DFF074666
:10682C000028DED0102300687968EE46FB724FF02A
:10683C002E0CBA6808AEFB68B7F81480AEE80F00EF
:10684C00BA69FB693869796906F820CD0DF10A0C33
:10685C007F8BAEE80F003346202203F8012F6345EF
:10686C00FBD1A86801222B6A90F806E02830023B85
:10687C0050F8141C03FA0EF3194404F0BBF88646C6
:10688C000028AED0ADF814804FF02E08ADF81A7079
:10689C0037460FCECEF80000CEF80410CEF8082004
:1068AC00CEF80C308DF801800FCECEF81000CEF85B
:1068BC001410CEF81820CEF81C30236A1A0CADF840
:1068CC001A30ADF814200FCFCEF82000CEF82410DB
:1068DC00CEF82820CEF82C300FCFCEF83000CEF8E2
:1068EC003410CEF83820CEF83C30AC6804F12800D7
:1068FC0004F0B0F800283FF474AF04F50E7004F007
:10690C00A9F800283FF46DAF206803681B6A08B033
:10691C00BDE8F04118476B6933B1AB78002223F026
:10692C0020032A616A61AB702846FFF7B5FE002888
:10693C003FF457AF6FE700BF2DE9F041064694B026
:10694C0000200C4631780192ADF814008DF82C0023
:10695C008DF82D008DF82E0021B99846237813F070
:10696C00700F03D1002014B0BDE8F08113781146EC
:10697C002F2B2ED0002701AB02AA304601F004F9D0
:10698C0002AA214600230028ECD0019D30462D7828
:10699C00002D30D000F0A6FF48B9B8F1000FE1D0BF
:1069AC00214602AA3046FFF715FF0028DAD03546FB
:1069BC000BAC96F800E00FCD0FC40FCD2D680FC4B3
:1069CC002560BEF1000F12D137700BACB770019976
:1069DC00D1E7013101910B782F2BFAD0A1680BA8CC
:1069EC00FFF7D6FD0028BDD00BAC0199C2E73046AD
:1069FC00FFF752FEE8E702AA21463046FFF7EAFE0F
:106A0C0014B0BDE8F08100BF2DE9F041064694B00A
:106A1C0000200D46317801928DF808008DF80900A0
:106A2C008DF80A00ADF8380021B998462B7813F090
:106A3C00700F03D1002014B0BDE8F081137811461B
:106A4C002F2B2AD0002702E001993770B77001ABC9
:106A5C000BAA304601F098F80BAA2946002300280F
:106A6C00E8D0019C3046247834B300F03BFF354627
:106A7C0002AC0028DED096F800E00FCD0FC40FCD8D
:106A8C00D5F800C002AD0FC4C4F800C0BEF1000FB1
:106A9C00DAD03046FFF700FED6E7013101910B78D2
:106AAC002F2BFAD08BB1A96802A8FFF771FD002833
:106ABC00C0D002AD0199C5E743460BAA2946304622
:106ACC0000F010FF14B0BDE8F081A9683046FFF764
:106ADC005FFDB0E719B101F58961FFF795BF084675
:106AEC00704700BF38B5CB6843B902780AB1184675
:106AFC0038BD8968BDE83840FFF74ABD0D462422F1
:106B0C000021044607F092FA01231022A3701846C4
:106B1C002270AA68EB68A260236238BD03780BB1BF
:106B2C0000207047FFF734BD2DE9F04F837883B018
:106B3C000546DF0740F190800F46017891460E071D
:106B4C0000F193808C0608D5826843695289C3EBA7
:106B5C0042139BB2994528BF9946B9F1000F00F03A
:106B6C00AA806B6988064E464FF0000805F1100AA2
:106B7C00AA68C3F3080440D5116A01EB5321002C19
:106B8C0054D1B6F5007F51D3536B99424ED0B6F524
:106B9C00806F73D328784FEA562B800605D4107972
:106BAC00C8EB0000834528BF834699424FEA4B242B
:106BBC000DD801EB0B00834209D202F128000191A0
:106BCC00009203F047FF009A0199002844D0D06A44
:106BDC005B463A46D0F800E0DEF814B0D8470028FF
:106BEC003AD06B69361B274423446B6163D02978F8
:106BFC00C3F30804AA688806BED492F8058008EA94
:106C0C005328002C38D1B8F1000F35D1002B3FD1CF
:106C1C0048064CBF136A2B6A2B619179023B506971
:106C2C008B4008EB00011944002CAAD002F128007B
:106C3C00002203F0DFFE78B1C4F500730119384669
